{
  "contractName": "Mortgage",
  "abi": [
    {
      "inputs": [],
      "stateMutability": "nonpayable",
      "type": "constructor"
    },
    {
      "anonymous": false,
      "inputs": [
        {
          "indexed": false,
          "internalType": "address",
          "name": "borrower",
          "type": "address"
        },
        {
          "indexed": false,
          "internalType": "uint256",
          "name": "amount",
          "type": "uint256"
        },
        {
          "indexed": false,
          "internalType": "uint256",
          "name": "interestRate",
          "type": "uint256"
        },
        {
          "indexed": false,
          "internalType": "uint256",
          "name": "duration",
          "type": "uint256"
        },
        {
          "indexed": false,
          "internalType": "uint256",
          "name": "monthlyPayment",
          "type": "uint256"
        }
      ],
      "name": "LoanInitialized",
      "type": "event"
    },
    {
      "anonymous": false,
      "inputs": [
        {
          "indexed": false,
          "internalType": "address",
          "name": "borrower",
          "type": "address"
        },
        {
          "indexed": false,
          "internalType": "uint256",
          "name": "amount",
          "type": "uint256"
        },
        {
          "indexed": false,
          "internalType": "uint256",
          "name": "balanceDue",
          "type": "uint256"
        }
      ],
      "name": "PaymentMade",
      "type": "event"
    },
    {
      "inputs": [],
      "name": "balanceDue",
      "outputs": [
        {
          "internalType": "uint256",
          "name": "",
          "type": "uint256"
        }
      ],
      "stateMutability": "view",
      "type": "function"
    },
    {
      "inputs": [],
      "name": "borrower",
      "outputs": [
        {
          "internalType": "address payable",
          "name": "",
          "type": "address"
        }
      ],
      "stateMutability": "view",
      "type": "function"
    },
    {
      "inputs": [],
      "name": "interestRate",
      "outputs": [
        {
          "internalType": "uint256",
          "name": "",
          "type": "uint256"
        }
      ],
      "stateMutability": "view",
      "type": "function"
    },
    {
      "inputs": [],
      "name": "lender",
      "outputs": [
        {
          "internalType": "address payable",
          "name": "",
          "type": "address"
        }
      ],
      "stateMutability": "view",
      "type": "function"
    },
    {
      "inputs": [],
      "name": "loanActive",
      "outputs": [
        {
          "internalType": "bool",
          "name": "",
          "type": "bool"
        }
      ],
      "stateMutability": "view",
      "type": "function"
    },
    {
      "inputs": [],
      "name": "loanAmount",
      "outputs": [
        {
          "internalType": "uint256",
          "name": "",
          "type": "uint256"
        }
      ],
      "stateMutability": "view",
      "type": "function"
    },
    {
      "inputs": [],
      "name": "loanDuration",
      "outputs": [
        {
          "internalType": "uint256",
          "name": "",
          "type": "uint256"
        }
      ],
      "stateMutability": "view",
      "type": "function"
    },
    {
      "inputs": [],
      "name": "monthlyPayment",
      "outputs": [
        {
          "internalType": "uint256",
          "name": "",
          "type": "uint256"
        }
      ],
      "stateMutability": "view",
      "type": "function"
    },
    {
      "inputs": [
        {
          "internalType": "address payable",
          "name": "_borrower",
          "type": "address"
        },
        {
          "internalType": "uint256",
          "name": "_amount",
          "type": "uint256"
        },
        {
          "internalType": "uint256",
          "name": "_interestRate",
          "type": "uint256"
        },
        {
          "internalType": "uint256",
          "name": "_duration",
          "type": "uint256"
        },
        {
          "internalType": "uint256",
          "name": "_monthlyPayment",
          "type": "uint256"
        }
      ],
      "name": "initializeLoan",
      "outputs": [],
      "stateMutability": "nonpayable",
      "type": "function"
    },
    {
      "inputs": [],
      "name": "makePayment",
      "outputs": [],
      "stateMutability": "payable",
      "type": "function"
    }
  ],
  "bytecode": "0x60806040526007805460ff19169055348015610019575f80fd5b505f80546001600160a01b03191633179055610662806100385f395ff3fe60806040526004361061008f575f3560e01c80639d585f7f116100575780639d585f7f14610151578063bcead63e14610166578063d8d7970014610184578063f5521bf11461018c578063f75dbeef146101a1575f80fd5b806348b75090146100935780635754f6c1146100c15780637c3a00fd146100e25780637df1f1b9146101055780638e6a99bb1461013c575b5f80fd5b34801561009e575f80fd5b506007546100ac9060ff1681565b60405190151581526020015b60405180910390f35b3480156100cc575f80fd5b506100e06100db3660046105bc565b6101b6565b005b3480156100ed575f80fd5b506100f760035481565b6040519081526020016100b8565b348015610110575f80fd5b50600154610124906001600160a01b031681565b6040516001600160a01b0390911681526020016100b8565b348015610147575f80fd5b506100f760065481565b34801561015c575f80fd5b506100f760025481565b348015610171575f80fd5b505f54610124906001600160a01b031681565b6100e061045e565b348015610197575f80fd5b506100f760045481565b3480156101ac575f80fd5b506100f760055481565b5f546001600160a01b031633146102205760405162461bcd60e51b8152602060048201526024808201527f4f6e6c79206c656e6465722063616e20696e697469616c697a6520746865206c60448201526337b0b71760e11b60648201526084015b60405180910390fd5b60075460ff16156102735760405162461bcd60e51b815260206004820152601960248201527f4c6f616e20616c726561647920696e697469616c697a65642e000000000000006044820152606401610217565b5f84116102ce5760405162461bcd60e51b815260206004820152602360248201527f4c6f616e20616d6f756e74206d7573742062652067726561746572207468616e60448201526210181760e91b6064820152608401610217565b5f831161031d5760405162461bcd60e51b815260206004820152601f60248201527f496e7465726573742072617465206d75737420626520706f7369746976652e006044820152606401610217565b5f821161036c5760405162461bcd60e51b815260206004820152601f60248201527f4c6f616e206475726174696f6e206d75737420626520706f7369746976652e006044820152606401610217565b5f81116103c55760405162461bcd60e51b815260206004820152602160248201527f4d6f6e74686c79207061796d656e74206d75737420626520706f7369746976656044820152601760f91b6064820152608401610217565b600180546001600160a01b0319166001600160a01b0387169081178255600286905560038590556004849055600583905560068690556007805460ff19169092179091556040805191825260208201869052810184905260608101839052608081018290527f18b77238e14695292cf3ff5411d113ed8271dc906125bcdc91799171668a09649060a00160405180910390a15050505050565b6001546001600160a01b031633146104b85760405162461bcd60e51b815260206004820181905260248201527f4f6e6c7920626f72726f7765722063616e206d616b65207061796d656e74732e6044820152606401610217565b60075460ff166104fd5760405162461bcd60e51b815260206004820152601060248201526f2637b0b7103737ba1030b1ba34bb329760811b6044820152606401610217565b600554341461054e5760405162461bcd60e51b815260206004820152601960248201527f496e636f7272656374207061796d656e7420616d6f756e742e000000000000006044820152606401610217565b3460065f82825461055f9190610607565b90915550506006545f03610578576007805460ff191690555b6006546040805133815234602082015280820192909252517fc65a4e529c0450a515882508bea7ee3485fbfdf8436e0bd13dc38dfbc859b1cb9181900360600190a1565b5f805f805f60a086880312156105d0575f80fd5b85356001600160a01b03811681146105e6575f80fd5b97602087013597506040870135966060810135965060800135945092505050565b8181038181111561062657634e487b7160e01b5f52601160045260245ffd5b9291505056fea26469706673582212208b7ebd313327c3eff047e310c71bc9bf412c75ac6e30c657ff7031f9dab1168164736f6c63430008140033",
  "immutableReferences": {},
  "source": "// SPDX-License-Identifier: MIT\npragma solidity >=0.4.22 <0.9.0;\n\ncontract Mortgage {\n    address payable public lender;\n    address payable public borrower;\n    uint256 public loanAmount;\n    uint256 public interestRate; // Assuming this is an annual rate, could be represented as a percentage times 100 (e.g., 5% as 500 to allow for decimal percentages)\n    uint256 public loanDuration; // In months, for example\n    uint256 public monthlyPayment;\n    uint256 public balanceDue;\n    bool public loanActive = false;\n\n    // Event declarations (optional but recommended for transparency)\n    event LoanInitialized(address borrower, uint amount, uint interestRate, uint duration, uint monthlyPayment);\n    event PaymentMade(address borrower, uint amount, uint balanceDue);\n\n    // Constructor to set the lender at contract deployment\n    constructor() {\n        lender = payable(msg.sender); // The deployer of the contract is the lender\n    }\n\n    // Initialize loan terms\n    function initializeLoan(address payable _borrower, uint _amount, uint _interestRate, uint _duration, uint _monthlyPayment) public {\n        require(msg.sender == lender, \"Only lender can initialize the loan.\");\n        require(!loanActive, \"Loan already initialized.\");\n        require(_amount > 0, \"Loan amount must be greater than 0.\");\n        require(_interestRate > 0, \"Interest rate must be positive.\");\n        require(_duration > 0, \"Loan duration must be positive.\");\n        require(_monthlyPayment > 0, \"Monthly payment must be positive.\");\n\n        borrower = _borrower;\n        loanAmount = _amount;\n        interestRate = _interestRate;\n        loanDuration = _duration;\n        monthlyPayment = _monthlyPayment;\n        balanceDue = _amount;\n        loanActive = true;\n\n        emit LoanInitialized(_borrower, _amount, _interestRate, _duration, _monthlyPayment); // Emitting event\n    }\n\n    // Make a payment towards the loan\n    function makePayment() public payable {\n        require(msg.sender == borrower, \"Only borrower can make payments.\");\n        require(loanActive, \"Loan not active.\");\n        require(msg.value == monthlyPayment, \"Incorrect payment amount.\");\n\n        balanceDue -= msg.value; // Assuming `msg.value` is the payment amount\n        if (balanceDue == 0) {\n            loanActive = false;\n        }\n\n        emit PaymentMade(msg.sender, msg.value, balanceDue); // Emitting event\n    }\n}\n",
  "sourcePath": "C:\\Users\\Jason\\OneDrive\\project\\SmartContractPoly\\contracts\\Mortgage.sol",
  "compiler": {
    "name": "solc",
    "version": "0.8.20+commit.a1b79de6.Emscripten.clang"
  },
  "schemaVersion": "3.4.16",
  "updatedAt": "2024-04-17T23:28:25.860Z",
  "devdoc": {
    "kind": "dev",
    "methods": {},
    "version": 1
  },
  "userdoc": {
    "kind": "user",
    "methods": {},
    "version": 1
  }
}